{
  "_format": "hh-sol-artifact-1",
  "contractName": "PlayerTokenNFT",
  "sourceName": "contracts/PlayerTokenNFT.sol",
  "abi": [
    {
      "inputs": [],
      "stateMutability": "payable",
      "type": "constructor"
    },
    {
      "anonymous": false,
      "inputs": [
        {
          "indexed": true,
          "internalType": "address",
          "name": "owner",
          "type": "address"
        },
        {
          "indexed": true,
          "internalType": "address",
          "name": "approved",
          "type": "address"
        },
        {
          "indexed": true,
          "internalType": "uint256",
          "name": "tokenId",
          "type": "uint256"
        }
      ],
      "name": "Approval",
      "type": "event"
    },
    {
      "anonymous": false,
      "inputs": [
        {
          "indexed": true,
          "internalType": "address",
          "name": "owner",
          "type": "address"
        },
        {
          "indexed": true,
          "internalType": "address",
          "name": "operator",
          "type": "address"
        },
        {
          "indexed": false,
          "internalType": "bool",
          "name": "approved",
          "type": "bool"
        }
      ],
      "name": "ApprovalForAll",
      "type": "event"
    },
    {
      "anonymous": false,
      "inputs": [
        {
          "indexed": true,
          "internalType": "address",
          "name": "previousOwner",
          "type": "address"
        },
        {
          "indexed": true,
          "internalType": "address",
          "name": "newOwner",
          "type": "address"
        }
      ],
      "name": "OwnershipTransferred",
      "type": "event"
    },
    {
      "anonymous": false,
      "inputs": [
        {
          "indexed": false,
          "internalType": "address",
          "name": "account",
          "type": "address"
        }
      ],
      "name": "Paused",
      "type": "event"
    },
    {
      "anonymous": false,
      "inputs": [
        {
          "indexed": true,
          "internalType": "address",
          "name": "from",
          "type": "address"
        },
        {
          "indexed": true,
          "internalType": "address",
          "name": "to",
          "type": "address"
        },
        {
          "indexed": true,
          "internalType": "uint256",
          "name": "tokenId",
          "type": "uint256"
        }
      ],
      "name": "Transfer",
      "type": "event"
    },
    {
      "anonymous": false,
      "inputs": [
        {
          "indexed": false,
          "internalType": "address",
          "name": "account",
          "type": "address"
        }
      ],
      "name": "Unpaused",
      "type": "event"
    },
    {
      "inputs": [],
      "name": "MAX_SUPPLY",
      "outputs": [
        {
          "internalType": "uint256",
          "name": "",
          "type": "uint256"
        }
      ],
      "stateMutability": "view",
      "type": "function"
    },
    {
      "inputs": [
        {
          "internalType": "address",
          "name": "to",
          "type": "address"
        },
        {
          "internalType": "uint256",
          "name": "tokenId",
          "type": "uint256"
        }
      ],
      "name": "approve",
      "outputs": [],
      "stateMutability": "nonpayable",
      "type": "function"
    },
    {
      "inputs": [
        {
          "internalType": "address",
          "name": "owner",
          "type": "address"
        }
      ],
      "name": "balanceOf",
      "outputs": [
        {
          "internalType": "uint256",
          "name": "",
          "type": "uint256"
        }
      ],
      "stateMutability": "view",
      "type": "function"
    },
    {
      "inputs": [
        {
          "internalType": "uint256",
          "name": "tokenId",
          "type": "uint256"
        }
      ],
      "name": "getApproved",
      "outputs": [
        {
          "internalType": "address",
          "name": "",
          "type": "address"
        }
      ],
      "stateMutability": "view",
      "type": "function"
    },
    {
      "inputs": [
        {
          "internalType": "address",
          "name": "owner",
          "type": "address"
        },
        {
          "internalType": "address",
          "name": "operator",
          "type": "address"
        }
      ],
      "name": "isApprovedForAll",
      "outputs": [
        {
          "internalType": "bool",
          "name": "",
          "type": "bool"
        }
      ],
      "stateMutability": "view",
      "type": "function"
    },
    {
      "inputs": [
        {
          "internalType": "address",
          "name": "_to",
          "type": "address"
        }
      ],
      "name": "mint",
      "outputs": [],
      "stateMutability": "nonpayable",
      "type": "function"
    },
    {
      "inputs": [],
      "name": "name",
      "outputs": [
        {
          "internalType": "string",
          "name": "",
          "type": "string"
        }
      ],
      "stateMutability": "view",
      "type": "function"
    },
    {
      "inputs": [],
      "name": "owner",
      "outputs": [
        {
          "internalType": "address",
          "name": "",
          "type": "address"
        }
      ],
      "stateMutability": "view",
      "type": "function"
    },
    {
      "inputs": [
        {
          "internalType": "uint256",
          "name": "tokenId",
          "type": "uint256"
        }
      ],
      "name": "ownerOf",
      "outputs": [
        {
          "internalType": "address",
          "name": "",
          "type": "address"
        }
      ],
      "stateMutability": "view",
      "type": "function"
    },
    {
      "inputs": [],
      "name": "paused",
      "outputs": [
        {
          "internalType": "bool",
          "name": "",
          "type": "bool"
        }
      ],
      "stateMutability": "view",
      "type": "function"
    },
    {
      "inputs": [],
      "name": "renounceOwnership",
      "outputs": [],
      "stateMutability": "nonpayable",
      "type": "function"
    },
    {
      "inputs": [
        {
          "internalType": "address",
          "name": "from",
          "type": "address"
        },
        {
          "internalType": "address",
          "name": "to",
          "type": "address"
        },
        {
          "internalType": "uint256",
          "name": "tokenId",
          "type": "uint256"
        }
      ],
      "name": "safeTransferFrom",
      "outputs": [],
      "stateMutability": "nonpayable",
      "type": "function"
    },
    {
      "inputs": [
        {
          "internalType": "address",
          "name": "from",
          "type": "address"
        },
        {
          "internalType": "address",
          "name": "to",
          "type": "address"
        },
        {
          "internalType": "uint256",
          "name": "tokenId",
          "type": "uint256"
        },
        {
          "internalType": "bytes",
          "name": "data",
          "type": "bytes"
        }
      ],
      "name": "safeTransferFrom",
      "outputs": [],
      "stateMutability": "nonpayable",
      "type": "function"
    },
    {
      "inputs": [
        {
          "internalType": "address",
          "name": "operator",
          "type": "address"
        },
        {
          "internalType": "bool",
          "name": "approved",
          "type": "bool"
        }
      ],
      "name": "setApprovalForAll",
      "outputs": [],
      "stateMutability": "nonpayable",
      "type": "function"
    },
    {
      "inputs": [
        {
          "internalType": "string",
          "name": "baseURI_",
          "type": "string"
        }
      ],
      "name": "setBaseURI",
      "outputs": [],
      "stateMutability": "nonpayable",
      "type": "function"
    },
    {
      "inputs": [
        {
          "internalType": "bytes4",
          "name": "_interfaceId",
          "type": "bytes4"
        }
      ],
      "name": "supportsInterface",
      "outputs": [
        {
          "internalType": "bool",
          "name": "",
          "type": "bool"
        }
      ],
      "stateMutability": "view",
      "type": "function"
    },
    {
      "inputs": [],
      "name": "symbol",
      "outputs": [
        {
          "internalType": "string",
          "name": "",
          "type": "string"
        }
      ],
      "stateMutability": "view",
      "type": "function"
    },
    {
      "inputs": [
        {
          "internalType": "uint256",
          "name": "index",
          "type": "uint256"
        }
      ],
      "name": "tokenByIndex",
      "outputs": [
        {
          "internalType": "uint256",
          "name": "",
          "type": "uint256"
        }
      ],
      "stateMutability": "view",
      "type": "function"
    },
    {
      "inputs": [
        {
          "internalType": "address",
          "name": "owner",
          "type": "address"
        },
        {
          "internalType": "uint256",
          "name": "index",
          "type": "uint256"
        }
      ],
      "name": "tokenOfOwnerByIndex",
      "outputs": [
        {
          "internalType": "uint256",
          "name": "",
          "type": "uint256"
        }
      ],
      "stateMutability": "view",
      "type": "function"
    },
    {
      "inputs": [
        {
          "internalType": "uint256",
          "name": "tokenId",
          "type": "uint256"
        }
      ],
      "name": "tokenURI",
      "outputs": [
        {
          "internalType": "string",
          "name": "",
          "type": "string"
        }
      ],
      "stateMutability": "view",
      "type": "function"
    },
    {
      "inputs": [],
      "name": "totalSupply",
      "outputs": [
        {
          "internalType": "uint256",
          "name": "",
          "type": "uint256"
        }
      ],
      "stateMutability": "view",
      "type": "function"
    },
    {
      "inputs": [
        {
          "internalType": "address",
          "name": "from",
          "type": "address"
        },
        {
          "internalType": "address",
          "name": "to",
          "type": "address"
        },
        {
          "internalType": "uint256",
          "name": "tokenId",
          "type": "uint256"
        }
      ],
      "name": "transferFrom",
      "outputs": [],
      "stateMutability": "nonpayable",
      "type": "function"
    },
    {
      "inputs": [
        {
          "internalType": "address",
          "name": "newOwner",
          "type": "address"
        }
      ],
      "name": "transferOwnership",
      "outputs": [],
      "stateMutability": "nonpayable",
      "type": "function"
    }
  ],
  "bytecode": "0x60a06040526040518060400160405280600e81526020017f506c61796572546f6b656e4e46540000000000000000000000000000000000008152506040518060400160405280600681526020017f504c59544b4e0000000000000000000000000000000000000000000000000000815250816000908162000081919062000558565b50806001908162000093919062000558565b5050506000600a60006101000a81548160ff021916908315150217905550620000d1620000c56200011d60201b60201c565b6200012560201b60201c565b60405180606001604052806025815260200162003f8a60259139600b9081620000fb919062000558565b50620f42406080818152505062000117620001eb60201b60201c565b62000724565b600033905090565b6000600a60019054906101000a900473ffffffffffffffffffffffffffffffffffffffff16905081600a60016101000a81548173ffffffffffffffffffffffffffffffffffffffff021916908373ffffffffffffffffffffffffffffffffffffffff1602179055508173ffffffffffffffffffffffffffffffffffffffff168173ffffffffffffffffffffffffffffffffffffffff167f8be0079c531659141344cd1fd0a4f28419497f9722a3daafe3b4186f6b6457e060405160405180910390a35050565b620001fb620001fd60201b60201c565b565b6200020d6200027260201b60201c565b6001600a60006101000a81548160ff0219169083151502179055507f62e78cea01bee320cd4e420270b5ea74000d11b0c9f74754ebdbfc544b05a258620002596200011d60201b60201c565b60405162000268919062000684565b60405180910390a1565b62000282620002c760201b60201c565b15620002c5576040517f08c379a0000000000000000000000000000000000000000000000000000000008152600401620002bc9062000702565b60405180910390fd5b565b6000600a60009054906101000a900460ff16905090565b600081519050919050565b7f4e487b7100000000000000000000000000000000000000000000000000000000600052604160045260246000fd5b7f4e487b7100000000000000000000000000000000000000000000000000000000600052602260045260246000fd5b600060028204905060018216806200036057607f821691505b60208210810362000376576200037562000318565b5b50919050565b60008190508160005260206000209050919050565b60006020601f8301049050919050565b600082821b905092915050565b600060088302620003e07fffffffffffffffffffffffffffffffffffffffffffffffffffffffffffffffff82620003a1565b620003ec8683620003a1565b95508019841693508086168417925050509392505050565b6000819050919050565b6000819050919050565b600062000439620004336200042d8462000404565b6200040e565b62000404565b9050919050565b6000819050919050565b620004558362000418565b6200046d620004648262000440565b848454620003ae565b825550505050565b600090565b6200048462000475565b620004918184846200044a565b505050565b5b81811015620004b957620004ad6000826200047a565b60018101905062000497565b5050565b601f8211156200050857620004d2816200037c565b620004dd8462000391565b81016020851015620004ed578190505b62000505620004fc8562000391565b83018262000496565b50505b505050565b600082821c905092915050565b60006200052d600019846008026200050d565b1980831691505092915050565b60006200054883836200051a565b9150826002028217905092915050565b6200056382620002de565b67ffffffffffffffff8111156200057f576200057e620002e9565b5b6200058b825462000347565b62000598828285620004bd565b600060209050601f831160018114620005d05760008415620005bb578287015190505b620005c785826200053a565b86555062000637565b601f198416620005e0866200037c565b60005b828110156200060a57848901518255600182019150602085019450602081019050620005e3565b868310156200062a578489015162000626601f8916826200051a565b8355505b6001600288020188555050505b505050505050565b600073ffffffffffffffffffffffffffffffffffffffff82169050919050565b60006200066c826200063f565b9050919050565b6200067e816200065f565b82525050565b60006020820190506200069b600083018462000673565b92915050565b600082825260208201905092915050565b7f5061757361626c653a2070617573656400000000000000000000000000000000600082015250565b6000620006ea601083620006a1565b9150620006f782620006b2565b602082019050919050565b600060208201905081810360008301526200071d81620006db565b9050919050565b6080516138436200074760003960008181610785015261090601526138436000f3fe608060405234801561001057600080fd5b506004361061014d5760003560e01c80635c975abb116100c357806395d89b411161007c57806395d89b411461039e578063a22cb465146103bc578063b88d4fde146103d8578063c87b56dd146103f4578063e985e9c514610424578063f2fde38b146104545761014d565b80635c975abb146102dc5780636352211e146102fa5780636a6278421461032a57806370a0823114610346578063715018a6146103765780638da5cb5b146103805761014d565b806323b872dd1161011557806323b872dd1461020a5780632f745c591461022657806332cb6b0c1461025657806342842e0e146102745780634f6ccce71461029057806355f804b3146102c05761014d565b806301ffc9a71461015257806306fdde0314610182578063081812fc146101a0578063095ea7b3146101d057806318160ddd146101ec575b600080fd5b61016c60048036038101906101679190612356565b610470565b604051610179919061239e565b60405180910390f35b61018a610482565b6040516101979190612449565b60405180910390f35b6101ba60048036038101906101b591906124a1565b610514565b6040516101c7919061250f565b60405180910390f35b6101ea60048036038101906101e59190612556565b61055a565b005b6101f4610671565b60405161020191906125a5565b60405180910390f35b610224600480360381019061021f91906125c0565b61067e565b005b610240600480360381019061023b9190612556565b6106de565b60405161024d91906125a5565b60405180910390f35b61025e610783565b60405161026b91906125a5565b60405180910390f35b61028e600480360381019061028991906125c0565b6107a7565b005b6102aa60048036038101906102a591906124a1565b6107c7565b6040516102b791906125a5565b60405180910390f35b6102da60048036038101906102d59190612748565b610838565b005b6102e4610853565b6040516102f1919061239e565b60405180910390f35b610314600480360381019061030f91906124a1565b61086a565b604051610321919061250f565b60405180910390f35b610344600480360381019061033f9190612791565b6108f0565b005b610360600480360381019061035b9190612791565b610981565b60405161036d91906125a5565b60405180910390f35b61037e610a38565b005b610388610a4c565b604051610395919061250f565b60405180910390f35b6103a6610a76565b6040516103b39190612449565b60405180910390f35b6103d660048036038101906103d191906127ea565b610b08565b005b6103f260048036038101906103ed91906128cb565b610b1e565b005b61040e600480360381019061040991906124a1565b610b80565b60405161041b9190612449565b60405180910390f35b61043e6004803603810190610439919061294e565b610be8565b60405161044b919061239e565b60405180910390f35b61046e60048036038101906104699190612791565b610c7c565b005b600061047b82610cff565b9050919050565b606060008054610491906129bd565b80601f01602080910402602001604051908101604052809291908181526020018280546104bd906129bd565b801561050a5780601f106104df5761010080835404028352916020019161050a565b820191906000526020600020905b8154815290600101906020018083116104ed57829003601f168201915b5050505050905090565b600061051f82610d79565b6004600083815260200190815260200160002060009054906101000a900473ffffffffffffffffffffffffffffffffffffffff169050919050565b60006105658261086a565b90508073ffffffffffffffffffffffffffffffffffffffff168373ffffffffffffffffffffffffffffffffffffffff16036105d5576040517f08c379a00000000000000000000000000000000000000000000000000000000081526004016105cc90612a60565b60405180910390fd5b8073ffffffffffffffffffffffffffffffffffffffff166105f4610dc4565b73ffffffffffffffffffffffffffffffffffffffff16148061062357506106228161061d610dc4565b610be8565b5b610662576040517f08c379a000000000000000000000000000000000000000000000000000000000815260040161065990612af2565b60405180910390fd5b61066c8383610dcc565b505050565b6000600880549050905090565b61068f610689610dc4565b82610e85565b6106ce576040517f08c379a00000000000000000000000000000000000000000000000000000000081526004016106c590612b84565b60405180910390fd5b6106d9838383610f1a565b505050565b60006106e983610981565b821061072a576040517f08c379a000000000000000000000000000000000000000000000000000000000815260040161072190612c16565b60405180910390fd5b600660008473ffffffffffffffffffffffffffffffffffffffff1673ffffffffffffffffffffffffffffffffffffffff168152602001908152602001600020600083815260200190815260200160002054905092915050565b7f000000000000000000000000000000000000000000000000000000000000000081565b6107c283838360405180602001604052806000815250610b1e565b505050565b60006107d1610671565b8210610812576040517f08c379a000000000000000000000000000000000000000000000000000000000815260040161080990612ca8565b60405180910390fd5b6008828154811061082657610825612cc8565b5b90600052602060002001549050919050565b610840611213565b80600b908161084f9190612ea3565b5050565b6000600a60009054906101000a900460ff16905090565b60008061087683611291565b9050600073ffffffffffffffffffffffffffffffffffffffff168173ffffffffffffffffffffffffffffffffffffffff16036108e7576040517f08c379a00000000000000000000000000000000000000000000000000000000081526004016108de90612fc1565b60405180910390fd5b80915050919050565b6108f8611213565b6000610902610671565b90507f00000000000000000000000000000000000000000000000000000000000000006001826109329190613010565b1115610973576040517f08c379a000000000000000000000000000000000000000000000000000000000815260040161096a90613090565b60405180910390fd5b61097d82826112ce565b5050565b60008073ffffffffffffffffffffffffffffffffffffffff168273ffffffffffffffffffffffffffffffffffffffff16036109f1576040517f08c379a00000000000000000000000000000000000000000000000000000000081526004016109e890613122565b60405180910390fd5b600360008373ffffffffffffffffffffffffffffffffffffffff1673ffffffffffffffffffffffffffffffffffffffff168152602001908152602001600020549050919050565b610a40611213565b610a4a60006112ec565b565b6000600a60019054906101000a900473ffffffffffffffffffffffffffffffffffffffff16905090565b606060018054610a85906129bd565b80601f0160208091040260200160405190810160405280929190818152602001828054610ab1906129bd565b8015610afe5780601f10610ad357610100808354040283529160200191610afe565b820191906000526020600020905b815481529060010190602001808311610ae157829003601f168201915b5050505050905090565b610b1a610b13610dc4565b83836113b2565b5050565b610b2f610b29610dc4565b83610e85565b610b6e576040517f08c379a0000000000000000000000000000000000000000000000000000000008152600401610b6590612b84565b60405180910390fd5b610b7a8484848461151e565b50505050565b6060610b8b82610d79565b6000610b9561157a565b90506000815111610bb55760405180602001604052806000815250610be0565b80610bbf8461160c565b604051602001610bd092919061317e565b6040516020818303038152906040525b915050919050565b6000600560008473ffffffffffffffffffffffffffffffffffffffff1673ffffffffffffffffffffffffffffffffffffffff16815260200190815260200160002060008373ffffffffffffffffffffffffffffffffffffffff1673ffffffffffffffffffffffffffffffffffffffff16815260200190815260200160002060009054906101000a900460ff16905092915050565b610c84611213565b600073ffffffffffffffffffffffffffffffffffffffff168173ffffffffffffffffffffffffffffffffffffffff1603610cf3576040517f08c379a0000000000000000000000000000000000000000000000000000000008152600401610cea90613214565b60405180910390fd5b610cfc816112ec565b50565b60007f780e9d63000000000000000000000000000000000000000000000000000000007bffffffffffffffffffffffffffffffffffffffffffffffffffffffff1916827bffffffffffffffffffffffffffffffffffffffffffffffffffffffff19161480610d725750610d71826116da565b5b9050919050565b610d82816117bc565b610dc1576040517f08c379a0000000000000000000000000000000000000000000000000000000008152600401610db890612fc1565b60405180910390fd5b50565b600033905090565b816004600083815260200190815260200160002060006101000a81548173ffffffffffffffffffffffffffffffffffffffff021916908373ffffffffffffffffffffffffffffffffffffffff160217905550808273ffffffffffffffffffffffffffffffffffffffff16610e3f8361086a565b73ffffffffffffffffffffffffffffffffffffffff167f8c5be1e5ebec7d5bd14f71427d1e84f3dd0314c0f7b2291e5b200ac8c7c3b92560405160405180910390a45050565b600080610e918361086a565b90508073ffffffffffffffffffffffffffffffffffffffff168473ffffffffffffffffffffffffffffffffffffffff161480610ed35750610ed28185610be8565b5b80610f1157508373ffffffffffffffffffffffffffffffffffffffff16610ef984610514565b73ffffffffffffffffffffffffffffffffffffffff16145b91505092915050565b8273ffffffffffffffffffffffffffffffffffffffff16610f3a8261086a565b73ffffffffffffffffffffffffffffffffffffffff1614610f90576040517f08c379a0000000000000000000000000000000000000000000000000000000008152600401610f87906132a6565b60405180910390fd5b600073ffffffffffffffffffffffffffffffffffffffff168273ffffffffffffffffffffffffffffffffffffffff1603610fff576040517f08c379a0000000000000000000000000000000000000000000000000000000008152600401610ff690613338565b60405180910390fd5b61100c83838360016117fd565b8273ffffffffffffffffffffffffffffffffffffffff1661102c8261086a565b73ffffffffffffffffffffffffffffffffffffffff1614611082576040517f08c379a0000000000000000000000000000000000000000000000000000000008152600401611079906132a6565b60405180910390fd5b6004600082815260200190815260200160002060006101000a81549073ffffffffffffffffffffffffffffffffffffffff02191690556001600360008573ffffffffffffffffffffffffffffffffffffffff1673ffffffffffffffffffffffffffffffffffffffff168152602001908152602001600020600082825403925050819055506001600360008473ffffffffffffffffffffffffffffffffffffffff1673ffffffffffffffffffffffffffffffffffffffff16815260200190815260200160002060008282540192505081905550816002600083815260200190815260200160002060006101000a81548173ffffffffffffffffffffffffffffffffffffffff021916908373ffffffffffffffffffffffffffffffffffffffff160217905550808273ffffffffffffffffffffffffffffffffffffffff168473ffffffffffffffffffffffffffffffffffffffff167fddf252ad1be2c89b69c2b068fc378daa952ba7f163c4a11628f55a4df523b3ef60405160405180910390a461120e838383600161189b565b505050565b61121b610dc4565b73ffffffffffffffffffffffffffffffffffffffff16611239610a4c565b73ffffffffffffffffffffffffffffffffffffffff161461128f576040517f08c379a0000000000000000000000000000000000000000000000000000000008152600401611286906133a4565b60405180910390fd5b565b60006002600083815260200190815260200160002060009054906101000a900473ffffffffffffffffffffffffffffffffffffffff169050919050565b6112e88282604051806020016040528060008152506118a1565b5050565b6000600a60019054906101000a900473ffffffffffffffffffffffffffffffffffffffff16905081600a60016101000a81548173ffffffffffffffffffffffffffffffffffffffff021916908373ffffffffffffffffffffffffffffffffffffffff1602179055508173ffffffffffffffffffffffffffffffffffffffff168173ffffffffffffffffffffffffffffffffffffffff167f8be0079c531659141344cd1fd0a4f28419497f9722a3daafe3b4186f6b6457e060405160405180910390a35050565b8173ffffffffffffffffffffffffffffffffffffffff168373ffffffffffffffffffffffffffffffffffffffff1603611420576040517f08c379a000000000000000000000000000000000000000000000000000000000815260040161141790613410565b60405180910390fd5b80600560008573ffffffffffffffffffffffffffffffffffffffff1673ffffffffffffffffffffffffffffffffffffffff16815260200190815260200160002060008473ffffffffffffffffffffffffffffffffffffffff1673ffffffffffffffffffffffffffffffffffffffff16815260200190815260200160002060006101000a81548160ff0219169083151502179055508173ffffffffffffffffffffffffffffffffffffffff168373ffffffffffffffffffffffffffffffffffffffff167f17307eab39ab6107e8899845ad3d59bd9653f200f220920489ca2b5937696c3183604051611511919061239e565b60405180910390a3505050565b611529848484610f1a565b611535848484846118fc565b611574576040517f08c379a000000000000000000000000000000000000000000000000000000000815260040161156b906134a2565b60405180910390fd5b50505050565b6060600b8054611589906129bd565b80601f01602080910402602001604051908101604052809291908181526020018280546115b5906129bd565b80156116025780601f106115d757610100808354040283529160200191611602565b820191906000526020600020905b8154815290600101906020018083116115e557829003601f168201915b5050505050905090565b60606000600161161b84611a83565b01905060008167ffffffffffffffff81111561163a5761163961261d565b5b6040519080825280601f01601f19166020018201604052801561166c5781602001600182028036833780820191505090505b509050600082602001820190505b6001156116cf578080600190039150507f3031323334353637383961626364656600000000000000000000000000000000600a86061a8153600a85816116c3576116c26134c2565b5b0494506000850361167a575b819350505050919050565b60007f80ac58cd000000000000000000000000000000000000000000000000000000007bffffffffffffffffffffffffffffffffffffffffffffffffffffffff1916827bffffffffffffffffffffffffffffffffffffffffffffffffffffffff191614806117a557507f5b5e139f000000000000000000000000000000000000000000000000000000007bffffffffffffffffffffffffffffffffffffffffffffffffffffffff1916827bffffffffffffffffffffffffffffffffffffffffffffffffffffffff1916145b806117b557506117b482611bd6565b5b9050919050565b60008073ffffffffffffffffffffffffffffffffffffffff166117de83611291565b73ffffffffffffffffffffffffffffffffffffffff1614159050919050565b611805610a4c565b73ffffffffffffffffffffffffffffffffffffffff16611823610dc4565b73ffffffffffffffffffffffffffffffffffffffff1614801561184a5750611849610853565b5b611889576040517f08c379a00000000000000000000000000000000000000000000000000000000081526004016118809061353d565b60405180910390fd5b61189584848484611c40565b50505050565b50505050565b6118ab8383611d9e565b6118b860008484846118fc565b6118f7576040517f08c379a00000000000000000000000000000000000000000000000000000000081526004016118ee906134a2565b60405180910390fd5b505050565b600061191d8473ffffffffffffffffffffffffffffffffffffffff16611fbb565b15611a76578373ffffffffffffffffffffffffffffffffffffffff1663150b7a02611946610dc4565b8786866040518563ffffffff1660e01b815260040161196894939291906135b2565b6020604051808303816000875af19250505080156119a457506040513d601f19601f820116820180604052508101906119a19190613613565b60015b611a26573d80600081146119d4576040519150601f19603f3d011682016040523d82523d6000602084013e6119d9565b606091505b506000815103611a1e576040517f08c379a0000000000000000000000000000000000000000000000000000000008152600401611a15906134a2565b60405180910390fd5b805181602001fd5b63150b7a0260e01b7bffffffffffffffffffffffffffffffffffffffffffffffffffffffff1916817bffffffffffffffffffffffffffffffffffffffffffffffffffffffff191614915050611a7b565b600190505b949350505050565b600080600090507a184f03e93ff9f4daa797ed6e38ed64bf6a1f0100000000000000008310611ae1577a184f03e93ff9f4daa797ed6e38ed64bf6a1f0100000000000000008381611ad757611ad66134c2565b5b0492506040810190505b6d04ee2d6d415b85acef81000000008310611b1e576d04ee2d6d415b85acef81000000008381611b1457611b136134c2565b5b0492506020810190505b662386f26fc100008310611b4d57662386f26fc100008381611b4357611b426134c2565b5b0492506010810190505b6305f5e1008310611b76576305f5e1008381611b6c57611b6b6134c2565b5b0492506008810190505b6127108310611b9b576127108381611b9157611b906134c2565b5b0492506004810190505b60648310611bbe5760648381611bb457611bb36134c2565b5b0492506002810190505b600a8310611bcd576001810190505b80915050919050565b60007f01ffc9a7000000000000000000000000000000000000000000000000000000007bffffffffffffffffffffffffffffffffffffffffffffffffffffffff1916827bffffffffffffffffffffffffffffffffffffffffffffffffffffffff1916149050919050565b611c4c84848484611fde565b6001811115611c90576040517f08c379a0000000000000000000000000000000000000000000000000000000008152600401611c87906136b2565b60405180910390fd5b6000829050600073ffffffffffffffffffffffffffffffffffffffff168573ffffffffffffffffffffffffffffffffffffffff1603611cd757611cd281611fe4565b611d16565b8373ffffffffffffffffffffffffffffffffffffffff168573ffffffffffffffffffffffffffffffffffffffff1614611d1557611d14858261202d565b5b5b600073ffffffffffffffffffffffffffffffffffffffff168473ffffffffffffffffffffffffffffffffffffffff1603611d5857611d538161219a565b611d97565b8473ffffffffffffffffffffffffffffffffffffffff168473ffffffffffffffffffffffffffffffffffffffff1614611d9657611d95848261226b565b5b5b5050505050565b600073ffffffffffffffffffffffffffffffffffffffff168273ffffffffffffffffffffffffffffffffffffffff1603611e0d576040517f08c379a0000000000000000000000000000000000000000000000000000000008152600401611e049061371e565b60405180910390fd5b611e16816117bc565b15611e56576040517f08c379a0000000000000000000000000000000000000000000000000000000008152600401611e4d9061378a565b60405180910390fd5b611e646000838360016117fd565b611e6d816117bc565b15611ead576040517f08c379a0000000000000000000000000000000000000000000000000000000008152600401611ea49061378a565b60405180910390fd5b6001600360008473ffffffffffffffffffffffffffffffffffffffff1673ffffffffffffffffffffffffffffffffffffffff16815260200190815260200160002060008282540192505081905550816002600083815260200190815260200160002060006101000a81548173ffffffffffffffffffffffffffffffffffffffff021916908373ffffffffffffffffffffffffffffffffffffffff160217905550808273ffffffffffffffffffffffffffffffffffffffff16600073ffffffffffffffffffffffffffffffffffffffff167fddf252ad1be2c89b69c2b068fc378daa952ba7f163c4a11628f55a4df523b3ef60405160405180910390a4611fb760008383600161189b565b5050565b6000808273ffffffffffffffffffffffffffffffffffffffff163b119050919050565b50505050565b6008805490506009600083815260200190815260200160002081905550600881908060018154018082558091505060019003906000526020600020016000909190919091505550565b6000600161203a84610981565b61204491906137aa565b9050600060076000848152602001908152602001600020549050818114612129576000600660008673ffffffffffffffffffffffffffffffffffffffff1673ffffffffffffffffffffffffffffffffffffffff168152602001908152602001600020600084815260200190815260200160002054905080600660008773ffffffffffffffffffffffffffffffffffffffff1673ffffffffffffffffffffffffffffffffffffffff168152602001908152602001600020600084815260200190815260200160002081905550816007600083815260200190815260200160002081905550505b6007600084815260200190815260200160002060009055600660008573ffffffffffffffffffffffffffffffffffffffff1673ffffffffffffffffffffffffffffffffffffffff16815260200190815260200160002060008381526020019081526020016000206000905550505050565b600060016008805490506121ae91906137aa565b90506000600960008481526020019081526020016000205490506000600883815481106121de576121dd612cc8565b5b906000526020600020015490508060088381548110612200576121ff612cc8565b5b90600052602060002001819055508160096000838152602001908152602001600020819055506009600085815260200190815260200160002060009055600880548061224f5761224e6137de565b5b6001900381819060005260206000200160009055905550505050565b600061227683610981565b905081600660008573ffffffffffffffffffffffffffffffffffffffff1673ffffffffffffffffffffffffffffffffffffffff168152602001908152602001600020600083815260200190815260200160002081905550806007600084815260200190815260200160002081905550505050565b6000604051905090565b600080fd5b600080fd5b60007fffffffff0000000000000000000000000000000000000000000000000000000082169050919050565b612333816122fe565b811461233e57600080fd5b50565b6000813590506123508161232a565b92915050565b60006020828403121561236c5761236b6122f4565b5b600061237a84828501612341565b91505092915050565b60008115159050919050565b61239881612383565b82525050565b60006020820190506123b3600083018461238f565b92915050565b600081519050919050565b600082825260208201905092915050565b60005b838110156123f35780820151818401526020810190506123d8565b60008484015250505050565b6000601f19601f8301169050919050565b600061241b826123b9565b61242581856123c4565b93506124358185602086016123d5565b61243e816123ff565b840191505092915050565b600060208201905081810360008301526124638184612410565b905092915050565b6000819050919050565b61247e8161246b565b811461248957600080fd5b50565b60008135905061249b81612475565b92915050565b6000602082840312156124b7576124b66122f4565b5b60006124c58482850161248c565b91505092915050565b600073ffffffffffffffffffffffffffffffffffffffff82169050919050565b60006124f9826124ce565b9050919050565b612509816124ee565b82525050565b60006020820190506125246000830184612500565b92915050565b612533816124ee565b811461253e57600080fd5b50565b6000813590506125508161252a565b92915050565b6000806040838503121561256d5761256c6122f4565b5b600061257b85828601612541565b925050602061258c8582860161248c565b9150509250929050565b61259f8161246b565b82525050565b60006020820190506125ba6000830184612596565b92915050565b6000806000606084860312156125d9576125d86122f4565b5b60006125e786828701612541565b93505060206125f886828701612541565b92505060406126098682870161248c565b9150509250925092565b600080fd5b600080fd5b7f4e487b7100000000000000000000000000000000000000000000000000000000600052604160045260246000fd5b612655826123ff565b810181811067ffffffffffffffff821117156126745761267361261d565b5b80604052505050565b60006126876122ea565b9050612693828261264c565b919050565b600067ffffffffffffffff8211156126b3576126b261261d565b5b6126bc826123ff565b9050602081019050919050565b82818337600083830152505050565b60006126eb6126e684612698565b61267d565b90508281526020810184848401111561270757612706612618565b5b6127128482856126c9565b509392505050565b600082601f83011261272f5761272e612613565b5b813561273f8482602086016126d8565b91505092915050565b60006020828403121561275e5761275d6122f4565b5b600082013567ffffffffffffffff81111561277c5761277b6122f9565b5b6127888482850161271a565b91505092915050565b6000602082840312156127a7576127a66122f4565b5b60006127b584828501612541565b91505092915050565b6127c781612383565b81146127d257600080fd5b50565b6000813590506127e4816127be565b92915050565b60008060408385031215612801576128006122f4565b5b600061280f85828601612541565b9250506020612820858286016127d5565b9150509250929050565b600067ffffffffffffffff8211156128455761284461261d565b5b61284e826123ff565b9050602081019050919050565b600061286e6128698461282a565b61267d565b90508281526020810184848401111561288a57612889612618565b5b6128958482856126c9565b509392505050565b600082601f8301126128b2576128b1612613565b5b81356128c284826020860161285b565b91505092915050565b600080600080608085870312156128e5576128e46122f4565b5b60006128f387828801612541565b945050602061290487828801612541565b93505060406129158782880161248c565b925050606085013567ffffffffffffffff811115612936576129356122f9565b5b6129428782880161289d565b91505092959194509250565b60008060408385031215612965576129646122f4565b5b600061297385828601612541565b925050602061298485828601612541565b9150509250929050565b7f4e487b7100000000000000000000000000000000000000000000000000000000600052602260045260246000fd5b600060028204905060018216806129d557607f821691505b6020821081036129e8576129e761298e565b5b50919050565b7f4552433732313a20617070726f76616c20746f2063757272656e74206f776e6560008201527f7200000000000000000000000000000000000000000000000000000000000000602082015250565b6000612a4a6021836123c4565b9150612a55826129ee565b604082019050919050565b60006020820190508181036000830152612a7981612a3d565b9050919050565b7f4552433732313a20617070726f76652063616c6c6572206973206e6f7420746f60008201527f6b656e206f776e6572206f7220617070726f76656420666f7220616c6c000000602082015250565b6000612adc603d836123c4565b9150612ae782612a80565b604082019050919050565b60006020820190508181036000830152612b0b81612acf565b9050919050565b7f4552433732313a2063616c6c6572206973206e6f7420746f6b656e206f776e6560008201527f72206f7220617070726f76656400000000000000000000000000000000000000602082015250565b6000612b6e602d836123c4565b9150612b7982612b12565b604082019050919050565b60006020820190508181036000830152612b9d81612b61565b9050919050565b7f455243373231456e756d657261626c653a206f776e657220696e646578206f7560008201527f74206f6620626f756e6473000000000000000000000000000000000000000000602082015250565b6000612c00602b836123c4565b9150612c0b82612ba4565b604082019050919050565b60006020820190508181036000830152612c2f81612bf3565b9050919050565b7f455243373231456e756d657261626c653a20676c6f62616c20696e646578206f60008201527f7574206f6620626f756e64730000000000000000000000000000000000000000602082015250565b6000612c92602c836123c4565b9150612c9d82612c36565b604082019050919050565b60006020820190508181036000830152612cc181612c85565b9050919050565b7f4e487b7100000000000000000000000000000000000000000000000000000000600052603260045260246000fd5b60008190508160005260206000209050919050565b60006020601f8301049050919050565b600082821b905092915050565b600060088302612d597fffffffffffffffffffffffffffffffffffffffffffffffffffffffffffffffff82612d1c565b612d638683612d1c565b95508019841693508086168417925050509392505050565b6000819050919050565b6000612da0612d9b612d968461246b565b612d7b565b61246b565b9050919050565b6000819050919050565b612dba83612d85565b612dce612dc682612da7565b848454612d29565b825550505050565b600090565b612de3612dd6565b612dee818484612db1565b505050565b5b81811015612e1257612e07600082612ddb565b600181019050612df4565b5050565b601f821115612e5757612e2881612cf7565b612e3184612d0c565b81016020851015612e40578190505b612e54612e4c85612d0c565b830182612df3565b50505b505050565b600082821c905092915050565b6000612e7a60001984600802612e5c565b1980831691505092915050565b6000612e938383612e69565b9150826002028217905092915050565b612eac826123b9565b67ffffffffffffffff811115612ec557612ec461261d565b5b612ecf82546129bd565b612eda828285612e16565b600060209050601f831160018114612f0d5760008415612efb578287015190505b612f058582612e87565b865550612f6d565b601f198416612f1b86612cf7565b60005b82811015612f4357848901518255600182019150602085019450602081019050612f1e565b86831015612f605784890151612f5c601f891682612e69565b8355505b6001600288020188555050505b505050505050565b7f4552433732313a20696e76616c696420746f6b656e2049440000000000000000600082015250565b6000612fab6018836123c4565b9150612fb682612f75565b602082019050919050565b60006020820190508181036000830152612fda81612f9e565b9050919050565b7f4e487b7100000000000000000000000000000000000000000000000000000000600052601160045260246000fd5b600061301b8261246b565b91506130268361246b565b925082820190508082111561303e5761303d612fe1565b5b92915050565b7f4d696e7420776f756c6420657863656564206d6178696d756d20737570706c79600082015250565b600061307a6020836123c4565b915061308582613044565b602082019050919050565b600060208201905081810360008301526130a98161306d565b9050919050565b7f4552433732313a2061646472657373207a65726f206973206e6f74206120766160008201527f6c6964206f776e65720000000000000000000000000000000000000000000000602082015250565b600061310c6029836123c4565b9150613117826130b0565b604082019050919050565b6000602082019050818103600083015261313b816130ff565b9050919050565b600081905092915050565b6000613158826123b9565b6131628185613142565b93506131728185602086016123d5565b80840191505092915050565b600061318a828561314d565b9150613196828461314d565b91508190509392505050565b7f4f776e61626c653a206e6577206f776e657220697320746865207a65726f206160008201527f6464726573730000000000000000000000000000000000000000000000000000602082015250565b60006131fe6026836123c4565b9150613209826131a2565b604082019050919050565b6000602082019050818103600083015261322d816131f1565b9050919050565b7f4552433732313a207472616e736665722066726f6d20696e636f72726563742060008201527f6f776e6572000000000000000000000000000000000000000000000000000000602082015250565b60006132906025836123c4565b915061329b82613234565b604082019050919050565b600060208201905081810360008301526132bf81613283565b9050919050565b7f4552433732313a207472616e7366657220746f20746865207a65726f2061646460008201527f7265737300000000000000000000000000000000000000000000000000000000602082015250565b60006133226024836123c4565b915061332d826132c6565b604082019050919050565b6000602082019050818103600083015261335181613315565b9050919050565b7f4f776e61626c653a2063616c6c6572206973206e6f7420746865206f776e6572600082015250565b600061338e6020836123c4565b915061339982613358565b602082019050919050565b600060208201905081810360008301526133bd81613381565b9050919050565b7f4552433732313a20617070726f766520746f2063616c6c657200000000000000600082015250565b60006133fa6019836123c4565b9150613405826133c4565b602082019050919050565b60006020820190508181036000830152613429816133ed565b9050919050565b7f4552433732313a207472616e7366657220746f206e6f6e20455243373231526560008201527f63656976657220696d706c656d656e7465720000000000000000000000000000602082015250565b600061348c6032836123c4565b915061349782613430565b604082019050919050565b600060208201905081810360008301526134bb8161347f565b9050919050565b7f4e487b7100000000000000000000000000000000000000000000000000000000600052601260045260246000fd5b7f6e6f74206f776e65722063616e6e6f74206d696e740000000000000000000000600082015250565b60006135276015836123c4565b9150613532826134f1565b602082019050919050565b600060208201905081810360008301526135568161351a565b9050919050565b600081519050919050565b600082825260208201905092915050565b60006135848261355d565b61358e8185613568565b935061359e8185602086016123d5565b6135a7816123ff565b840191505092915050565b60006080820190506135c76000830187612500565b6135d46020830186612500565b6135e16040830185612596565b81810360608301526135f38184613579565b905095945050505050565b60008151905061360d8161232a565b92915050565b600060208284031215613629576136286122f4565b5b6000613637848285016135fe565b91505092915050565b7f455243373231456e756d657261626c653a20636f6e736563757469766520747260008201527f616e7366657273206e6f7420737570706f727465640000000000000000000000602082015250565b600061369c6035836123c4565b91506136a782613640565b604082019050919050565b600060208201905081810360008301526136cb8161368f565b9050919050565b7f4552433732313a206d696e7420746f20746865207a65726f2061646472657373600082015250565b60006137086020836123c4565b9150613713826136d2565b602082019050919050565b60006020820190508181036000830152613737816136fb565b9050919050565b7f4552433732313a20746f6b656e20616c7265616479206d696e74656400000000600082015250565b6000613774601c836123c4565b915061377f8261373e565b602082019050919050565b600060208201905081810360008301526137a381613767565b9050919050565b60006137b58261246b565b91506137c08361246b565b92508282039050818111156137d8576137d7612fe1565b5b92915050565b7f4e487b7100000000000000000000000000000000000000000000000000000000600052603160045260246000fdfea2646970667358221220d2a797dbde52bc747e034bec4efcd5c6a437dbf2a435dae7669f1847bd427a9264736f6c63430008130033687474703a2f2f6c6f63616c686f73743a333030302f706c6179746f6b656e2f6d6574612f",
  "linkReferences": {},
  "deployedLinkReferences": {}
}